:020000040800F2
:10000000B80600208901000883120008CD100008FE
:10001000811200088F020008E116000800000000AD
:10002000000000000000000000000000871200082F
:1000300091020008000000008512000889120008E3
:10004000A3010008A3010008A3010008A301000800
:10005000A3010008A301000893020008BF020008E2
:10006000C5020008A3010008A3010008A3010008BD
:10007000A3010008A3010008A3010008A3010008D0
:10008000A3010008A3010008A3010008A3010008C0
:10009000A3010008A3010008A3010008A3010008B0
:1000A000A3010008A3010008A3010008A3010008A0
:1000B000E1120008A301000800000000A3010008ED
:1000C000A30100080000000000000000A3010008D8
:1000D00000000000A3010008A301000800000000C8
:1000E00099020008A3010008A301000800F002F82B
:1000F00000F03AF80AA090E8000C82448344AAF188
:100100000107DA4501D100F02FF8AFF2090EBAE885
:100110000F0013F0010F18BFFB1A43F0010318473B
:100120008C160000AC160000103A24BF78C878C1C5
:10013000FAD8520724BF30C830C144BF04680C60ED
:10014000704700000023002400250026103A28BF35
:1001500078C1FBD8520728BF30C148BF0B60704739
:100160001FB51FBD10B510BD00F058F81146FFF7C0
:10017000F7FF01F0C7FA00F076F803B4FFF7F2FFDB
:1001800003BC00F07DF8000009488047094800479B
:10019000FEE7FEE7FEE7FEE7FEE7FEE7FEE7FEE737
:1001A000FEE7FEE704480549054A064B7047000094
:1001B000DD120008ED000008B8000020B80600209D
:1001C000B8020020B80200204FF0000200B513462C
:1001D00094469646203922BFA0E80C50A0E80C5067
:1001E000B1F12001BFF4F7AF090728BFA0E80C5018
:1001F00048BF0CC05DF804EB890028BF40F8042B11
:1002000008BF704748BF20F8022B11F0804F18BF7D
:1002100000F8012B7047704770477047754600F033
:100220002BF8AE4605006946534620F00700854688
:1002300018B020B5FFF7B6FFBDE820404FF000062C
:100240004FF000074FF000084FF0000B21F00701BE
:10025000AC46ACE8C009ACE8C009ACE8C009ACE801
:10026000C0098D46704710B50446AFF300802046A4
:10027000BDE81040FFF781BF0048704758000020DC
:1002800001491820ABBEFEE7260002007047FEE7DA
:100290007047012000F02EB810B54FF4806000F0D8
:1002A00029F84FF4006000F025F84FF4804000F08A
:1002B00021F8BDE810404FF4004000F01BB80220C8
:1002C00000F018B8042000F015B8000070B504461E
:1002D00000F00EF90546601C02D004480078044482
:1002E00000F006F9401BA042FAD370BD00000020C8
:1002F00070470000044910B50A68024202D0086045
:10030000FFF7F6FF10BD0000140401402DE9F84F7F
:10031000DFF89C91002409F1040A0AF1040B23463A
:100320000F270BF1040EBBE00125A5402A40AA428D
:1003300076D1DFF880C14E68A6EB0C0866452BD05D
:100340000DDC032E34D005DC36B3012E19D0022E7D
:100350002FD11BE0112E16D0122E2AD119E0B8F59C
:10036000881F19D006DCB8F5803F15D0B8F5801F7E
:100370001FD111E0B8F5001F0ED0B8F5041F18D139
:100380000AE0CB6815E0CB681B1D12E0CB68083390
:100390000FE0CB680C330CE08B682BB1012B4FF0D6
:1003A000080303D0456104E0042302E0056100E096
:1003B0000023FF2A01D8064601E000F104064FEAB7
:1003C000840501D9A5F12005D6F8008007FA05FCBF
:1003D00028EA0C0803FA05F548EA0508C6F8008083
:1003E0004D68ED005BD5344DAE6946F00106AE6157
:1003F000AD6924F0030605F0010500952F4D06EBCD
:10040000050CDCF80850A607360F07FA06F825EAAF
:100410000805DFF8AC80404503D14FF0000810E03C
:100420003DE0DFF8A080404502D14FF0010808E030
:10043000DFF89480404502D14FF0020801E04FF010
:10044000030808FA06F848EA0508CCF808804D6861
:10045000D9F80060ED034D4601D5164300E0964300
:100460002E604D68DAF80060AD03554601D516439D
:1004700000E096432E604D68DBF80060ED025D46BB
:1004800001D5164300E096432E604D68DEF800600B
:10049000AD02754601D5164300E096432E60641CFC
:1004A0000A6832FA04F57FF43FAFBDE8F88F000028
:1004B0000004014000001110001002400000014043
:1004C00000080140000C0140001001408068084015
:1004D00000D001207047C26821EA02030A4043EAC3
:1004E0000241016170470AB1016170470904FBE7ED
:1004F00001488068704700000000002002488168C1
:10050000027811448160704700000020074810B550
:10051000016841F010010160032000F075F80F2020
:1005200000F006F800F024F8002010BD0020024082
:1005300070B50D4D04464FF47A712878B1FBF0F098
:100540000A490968B1FBF0F000F0CCFA48B9102C68
:1005500007D200222146501E00F036F800206C60C1
:1005600070BD012070BD0000000000200C000020C4
:100570000C4808B5816941F001018161816901F090
:1005800001010091C16941F08051C161C06900F071
:10059000805000900448416821F0E06141F0007112
:1005A000416008BD0010024000000140002809DB46
:1005B00000F01F02012191404009800000F1E0207D
:1005C000C0F8001170470000F0B40E4B1B680C46D9
:1005D000C3F30223C3F10705042D00D90425191D17
:1005E000072901D2002300E0DB1E012606FA05F1EF
:1005F000491E214099409E40761E16403143F0BC72
:1006000001F06FB80CED00E0064900F00702086841
:100610004FF6FF03184040EA0220034A10430860E7
:10062000704700000CED00E00000FA052DE9F047EE
:100630000F46050061D0434E306800F00700B84215
:1006400009D2306820F0070038433060306800F08D
:100650000700B84251D128683B4C810712D54007AA
:1006600003D5606840F4E06060602878000703D537
:10067000606840F4605060606068A96820F0F00035
:10068000084360602878C00728D06868012810D027
:100690002168022810D0890700292EDA616821F02C
:1006A000030101436160FFF723FF804641F288396F
:1006B0000DE021688903EFE78901EDE7FFF718FFF7
:1006C000A0EB0801494502D90320BDE8F087606826
:1006D000696800F00C00B0EB810FEFD1306800F0DA
:1006E0000700B8420BD9306820F00700384330606B
:1006F000306800F00700B84201D00120E5E7287813
:10070000400705D56068E96820F4E0600843606050
:100710002878000706D56068296920F4605040EA0F
:10072000C100606000F018F86168084AC1F3031165
:10073000515CC8400649086006480068FFF7F8FEAB
:100740000020C2E700200240001002409C17000871
:100750000C0000200400002012A185B00FC98DE814
:100760000F0014A0144A006804905168134801F067
:100770000C03042B10D0082B0ED1C1F38343C90303
:100780001DF803000AD5516804AAC1F34041515C29
:100790000A4A5043B0FBF1F005B07047084948439E
:1007A000FAE7000002030405060708090A0B0C0D0E
:1007B0000E0F1010010200000010024000127A001B
:1007C00000093D002DE9F84F040070D02078C04D9D
:1007D000C00749D06868C0F38100012807D0686865
:1007E000C0F38100022809D16868C00306D52868D3
:1007F000800339D560680028E7D035E06068B0F53F
:10080000803F0BD010B1B0F5A02F11D0286820F494
:1008100080302860286820F4802002E0286840F4B6
:1008200080302860606890B1FFF762FE06460AE0FB
:10083000286840F480202860F0E700BFFFF758FEEA
:10084000801B642873D828688003F7D50CE0FFF775
:100850004FFE064605E000BFFFF74AFE801B6428F6
:10086000F0D828688003F7D420789A4E80074FF09C
:1008700001094FF0000839D5686810F00C0F07D057
:100880006868C0F38100022809D16868C00306D4F3
:100890002868800714D52069012808D110E0206954
:1008A000B0B1C6F80090FFF723FE074605E00AE165
:1008B000FFF71EFEC01B0228C4D828688007F7D5A2
:1008C0002868616920F0F80040EAC10028600DE066
:1008D000C6F80080FFF70CFE074604E0FFF708FEAD
:1008E000C01B022823D828688007F7D42078000787
:1008F0002CD57948A169D9B1C0F80090FFF7F8FD6F
:10090000074604E0FFF7F4FDC01B02280FD8686A11
:100910008007F7D571484FF4FA510068B0FBF1F049
:10092000009000BF0098411E0091FAD20EE080E0D6
:10093000C0F80080FFF7DCFD074604E0FFF7D8FDB4
:10094000C01B022875D8686A8007F7D42078400752
:1009500060D5E8690027C00008D4E86940F08050FD
:10096000E861E869012700F0805000905C48016868
:10097000C90513D40168834641F480710160FFF713
:10098000B7FD824606E000BFFFF7B2FDA0EB0A000C
:1009900064284ED8DBF80000C005F5D5E0680128D2
:1009A0000AD008B1052813D0286A20F00100286277
:1009B000286A20F0040002E0286A40F00100286262
:1009C000E06841F2883B98B1FFF792FD82460BE068
:1009D000286A40F004002862EEE700BFFFF788FDB8
:1009E000A0EB0A0159455AD8286A8007F6D50CE0D1
:1009F000FFF77EFD824605E0FFF77AFDA0EB0A01D6
:100A000059454CD8286A8007F6D41FB1E86920F010
:100A10008050E861E06988B36968C1F38101022907
:100A200044D00228C6F8608004D0FFF761FD044678
:100A300038E034E0FFF75CFD074604E0FFF758FDBF
:100A4000C01B02282BD828688001F7D4206AB0F593
:100A5000803F05D16868A16820F4003008436860D1
:100A6000D4E908010843696821F4741108436860F7
:100A7000C6F86090FFF73CFD044606E025E000BFA5
:100A8000FFF736FD001B022809D828688001F7D53A
:100A90001BE000BFFFF72CFD001B022802D903203A
:100AA000BDE8F88F28688001F4D40EE00128F7D063
:100AB0006868226A00F48031914204D1616A00F4CE
:100AC0007010884201D00120EAE70020E8E700002A
:100AD0000010024000004242800442420C0000200C
:100AE0000070004010B5401EB0F1807F01D301209E
:100AF00010BD4FF0E02460610F21601700F0F1FDA0
:100B00000020A06107202061002010BD70477047C1
:100B100070B590F83C20012A23D0012480F83C4095
:100B2000022280F83D2003685A689D6822F0700612
:100B30000A6832435A600C4B02689A4205D0B2F1FF
:100B4000804F02D0094B9A4204D1496825F08003B6
:100B50001943916080F83D40002180F83C10084620
:100B600070BD022070BD0000002C01400004004058
:100B700010B5040003D094F83D0010B107E0012047
:100B800010BD002084F83C00204600F01FF8022031
:100B900084F83D00211D206800F0ACFB012084F8A2
:100BA000460084F83E0084F83F0084F8400084F852
:100BB000410084F8420084F8430084F8440084F83B
:100BC000450084F83D00002010BD000008B5006815
:100BD000B0F1804F12D10A48C16941F00101C161F1
:100BE000C069002200F00100009003211C20FFF7E3
:100BF000EBFCBDE808401C20FFF7D8BC08BD000096
:100C00000010024070B5044690F83C00012817D04F
:100C1000012584F83C50022084F83D002068826859
:100C200022F0770222F47F4282600868502830D098
:100C30000DDC20284DD005DC98B310283BD148E0CE
:100C4000022070BD302844D0402834D139E06028DB
:100C500028D0702806D0B0F5805F2CD0B0F5005FAA
:100C600029D10AE0CB68D1E90121206800F07DFBA1
:100C70002068816841F0770109E0CB68D1E9012162
:100C8000206800F072FB2068816841F48041816037
:100C900011E0CA684968206800F01CFC50212068F7
:100CA00007E016E0CA684968206800F024FC60216B
:100CB000206800F064FB84F83D50002084F83C007C
:100CC00070BDCA684968206800F004FC40212068B3
:100CD000EFE7226801461046EBE7704770B504461F
:100CE000006801694FF00005C943890715D4C16840
:100CF000C943890711D4E91E0161012020772068CA
:100D000080698007204602D0FFF7E7FF04E000F08B
:100D100098F8204600F027F9257720680169C94333
:100D2000490717D4C168C943490713D46FF00401B8
:100D30000161022020772068806910F4407F2046FE
:100D400002D0FFF7CAFF04E000F07BF8204600F075
:100D50000AF9257720680169C943090716D4C168D3
:100D6000C943090712D46FF00801016104202077FC
:100D70002068C0698007204602D0FFF7AEFF04E07C
:100D800000F05FF8204600F0EEF825772068016952
:100D9000C943C90617D4C168C943C90613D46FF043
:100DA00010010161082020772068C06910F4407F9D
:100DB000204602D0FFF791FF04E000F042F8204601
:100DC00000F0D1F8257720680169C943C90708D127
:100DD000C168C943C90704D1891E0161204600F0DA
:100DE00073F920680169C943090609D4C168C94378
:100DF000090605D46FF0800101612046FFF786FEE9
:100E000020680169C943490609D4C168C943490634
:100E100005D46FF040010161204600F056F92068CA
:100E20000169C94389060BD4C168C943890607D43F
:100E30006FF0200101612046BDE87040FFF767BEFA
:100E400070BD704770B5044690F83C000D4601280F
:100E50000AD0012084F83C0042B1042A18D0082AA4
:100E60002AD00C2A4DD139E0022070BD206800F054
:100E70008FFA2068816941F00801816120688169E9
:100E800021F004018161206881692A69114311E020
:100E9000206800F0A5FA2068816941F40061816151
:100EA0002068816921F480618161206881692A69F3
:100EB00041EA0221816124E0206800F0BDFA206847
:100EC000C16941F00801C1612068C16921F00401D4
:100ED000C1612068C1692A69114311E0206800F0EE
:100EE000D7FA2068C16941F40061C1612068C16915
:100EF00021F48061C1612068C1692A6941EA022147
:100F0000C161002084F83C0070BD10B5040003D01E
:100F100094F83D0010B107E0012010BD002084F8D6
:100F20003C00204600F01EF8022084F83D00211D00
:100F3000206800F0DFF9012084F8460084F83E00C4
:100F400084F83F0084F8400084F8410084F84200AF
:100F500084F8430084F8440084F8450084F83D0098
:100F6000002010BD7047704710B50446022249B1F9
:100F7000042912D008291CD094F84100012823D05C
:100F8000012010BD94F83E000128F9D184F83E20DC
:100F90002068C26842F0020209E094F83F0001288C
:100FA000EED184F83F202068C26842F00402C2609B
:100FB0000EE094F840000128E2D184F84020206837
:100FC000C26842F00802F2E784F841200C291FD0E1
:100FD0000122206800F0BCF910492068884203D142
:100FE000426C42F4004242642068884205D0B0F16D
:100FF000804F02D00A49884204D1816801F007017C
:10100000062903D0016841F001010160002010BDF4
:101010002068C26842F01002C9E70000002C0140BD
:101020000004004030B5044600680D0006D0042DD1
:1010300008D0082D35D00C2D08D136E0C16821F03C
:10104000020102E0C16821F00401C16000222946CA
:10105000206800F07DF91B4B41F2111120688A10C5
:10106000984209D1036A0B4206D1036A134203D1A5
:10107000436C23F4004343642068036A0B4206D1A7
:10108000016A114203D1016821F0010101600120D0
:101090007DB1042D10D0082D11D084F8410000201E
:1010A00030BDC16821F00801CFE7C16821F010010F
:1010B000CBE784F83E00F2E784F83F00EFE784F8DE
:1010C0004000ECE7002C014070477047FEE700004D
:1010D0002DE9F04385B0002000900190029003902C
:1010E0003D48816941F010018161816901F0100181
:1010F0000491816941F004018161816901F0040179
:101100000491816941F0080181618069DFF8CC8038
:1011100000F008004FF2F8060490002231464046E5
:10112000FFF7E1F9DFF8B8904FF4F857002239469D
:101130004846FFF7D8F92B4D4FF44040CDE9000564
:101140000124694602942848FFF7E0F80720CDE91A
:101150000005694602944846FFF7D8F84FF440600E
:10116000CDE90005694602944046FFF7CFF8CDE986
:101170000064022569464046CDE90245FFF7C6F8FE
:10118000CDE9007469464846CDE90245FFF7BEF84F
:10119000002201210620FFF717FA0620FFF706FAC2
:1011A000002202210720FFF70FFA0720FFF7FEF9C0
:1011B000002205210820FFF707FA0820FFF7F6F9BB
:1011C000002204212820FFF7FFF92820FFF7EEF97D
:1011D00005B0BDE8F083000000100240000C0140A3
:1011E00000080140000021100010014010B58EB031
:1011F00000240794089409940A940B941C216846CF
:101200000C94FEF7E1FF1D484FF0804101604F2133
:10121000C0E901146321C0E9031480218161FFF753
:10122000A7FC08B172B6FEE74FF48050079007A9FB
:101230001248FFF7E7FC08B172B6FEE70F48FFF768
:1012400064FE08B172B6FEE70B940BA90B480C9430
:10125000FFF75EFC08B172B6FEE760200090322016
:10126000CDE901040022694604480494FFF7EAFD31
:10127000002801D072B6FEE70EB010BD10000020AD
:10128000FEE7FEE770477047FFF738B910B590B03A
:1012900028216846FEF798FF14210AA8FEF794FF5C
:1012A0000220009001200490102000240590079453
:1012B0006846FFF787FA08B172B6FEE70F20CDE95E
:1012C0000A040C940D9400210AA80E94FFF7AEF9BD
:1012D000002801D072B6FEE710B010BD70470000C4
:1012E00010B500F01BF9BDE810400148FFF7F6BC4F
:1012F0001000002070B50268134B144C4FF080466C
:10130000984203D0B04201D0A04203D122F0700530
:101310004A682A43984203D0B04201D0A04203D188
:1013200022F44074CA6822434C6922F080022243AE
:1013300002608A68C2620A688262984201D10969C1
:1013400001630121416170BD002C01400004004097
:1013500010B501F01F030121046A99408C43046217
:10136000016A9A401143016210BD10B5846842EAD7
:10137000032224F47F440A432243826010BD826822
:1013800022F070020A4342F00701816070470000BA
:1013900030B5026A22F001020262026A436884697F
:1013A00024F073050C682C4322F002058A682A4356
:1013B0000A4DA8420BD122F00805CA6823F44073F5
:1013C0002A434D6922F004021D438B692B4343607D
:1013D000846149684163026230BD0000002C014015
:1013E00030B5026A22F010020262026A4368846920
:1013F0000D6824F4E64444EA05248D6822F02002B6
:1014000042EA05120B4DA8420ED1CD6822F08002AF
:1014100042EA05124D6923F4406343EA85038D696E
:1014200022F0400243EA8503436084614968816396
:10143000026230BD002C014030B5026A22F4807295
:101440000262036A4268C46923F4007324F07305DE
:101450000C682C438D6843EA05230C4DA8420ED13D
:10146000CD6823F4006343EA05234D6922F440521A
:1014700042EA05128D6923F4806342EA0512426054
:10148000C4614968C163036230BD0000002C0140A3
:1014900030B5026A22F480520262046A4268C3696B
:1014A0000D6823F4E64343EA05238D6824F40054D1
:1014B00044EA0534064DA84204D14D6922F4804225
:1014C00042EA85124260C36149680164046230BD2A
:1014D000002C014010B5036A046A24F00104046280
:1014E000846924F0F00444EA021423F00A020A4357
:1014F0008461026210BD10B5036A23F01003036219
:101500008369046A23F4704343EA023224F0A0039F
:1015100043EA01118261016210BD000010B5164C52
:1015200040212046FEF7D7FF80212046FEF7D3FF5B
:1015300020212046FEF7CFFF10212046FEF7CBFFEB
:1015400008212046FEF7C7FFA1140C4C2046FEF7E9
:10155000C2FFE1142046FEF7BEFF21152046FEF72C
:10156000BAFF61152046FEF7B6FFA1152046BDE87B
:101570001040FEF7B0BF0000000C01400008014021
:101580002DE9F04100252C46012640F2FF3764206A
:10159000FEF79CFE06FA04F0284385B2284600F0C8
:1015A00059F8641CE4B2BD42F1D1BDE8F08170B5D8
:1015B00040F2FF344FF6FF756420FEF787FE05EA20
:1015C0004404204600F046F8002CF5D170BD000020
:1015D00070B5064CA5126420FEF778FE640820461C
:1015E00000F038F8AC42F6D170BD000000FC0F00EE
:1015F00010B540F2FF346420FEF768FE6408204610
:1016000000F028F8002CF6D110BD10B545F2555069
:1016100000F020F84FF47A742046FEF757FE4AF6A1
:10162000AA2000F017F82046BDE81040FEF74EBE95
:1016300010B50022F8210548FEF755FFBDE810401F
:1016400000224FF4F8510248FEF74DBF000C014054
:101650000008014070B5204D044600F001028021D1
:101660002846FEF740FFC4F3400240212846FEF71B
:101670003AFFC4F3800220212846FEF734FFC4F36A
:10168000C00210212846FEF72EFFC4F300120821E5
:101690002846FEF728FFA914104DC4F3401228462F
:1016A000FEF721FFC4F38012E9142846FEF71BFF62
:1016B000C4F3C01229152846FEF715FFC4F3002213
:1016C00069152846FEF70FFFC4F34022A9152846E6
:1016D000BDE87040FEF707BF000C01400008014064
:1016E000FEE70907090E002804DB00F1E02080F87E
:1016F0000014704700F00F0000F1E02080F8141D86
:1017000070470000FEF702FFFFF7C0FDFFF7E0FCA7
:10171000FFF76CFDFFF78CFF1D4CDFF878804FF46E
:101720008065E6144FF47A7729462046FEF7CEFE10
:1017300080B131462046FEF7C9FEB8B104214046CB
:10174000FEF7C4FE012814484FF000011AD0FFF73D
:101750000BFCE9E700211048FFF764FCFFF710FFDE
:101760003846FEF7B3FDFFF722FFDDE700210A4808
:10177000FFF758FCFFF72CFF3846FEF7A7FDFFF7F1
:1017800037FFD1E7FFF74EFCFFF73FFFCCE7000044
:10179000000C014000080140100000200000000083
:1017A000000000000102030406070809CC17000826
:1017B000000000201000000028010008DC170008CD
:1017C00010000020A80600004401000801000000ED
:0C17D00010000000000000000024F400E5
:04000005080000ED02
:00000001FF
